:030000000211F3F7
:0C11F300787FE4F6D8FD75815F020D7D69
:10119B003D256400256400000000000000000000F5
:0711AB00000000000000003D
:0B11FF00E4F5807590FFF5A0F5B0222C
:100F4300C290D291D292D2932094091211B23094CA
:100F5300FD7F37222095091211B23095FD7F38228B
:100F63002096091211B23096FD7F3922209709127B
:100F730011B23097FD7F2F22D290C291D292D29399
:100F83002094091211B23094FD7F34222095091266
:100F930011B23095FD7F35222096091211B2309699
:100FA300FD7F36222097091211B23097FD7F2A2246
:100FB300D290D291C292D2932094091211B230945A
:100FC300FD7F31222095091211B23095FD7F322227
:100FD3002096091211B23096FD7F33222097091211
:100FE30011B23097FD7F2D22D290D291D292C2932B
:100FF3002094091211B23094FD7F432220950912E7
:1010030011B23095FD7F30222096091211B230962D
:10101300FD7F3D222097091211B23097FD7F2B22CD
:031023007F6E22BB
:10117B00EF24D6601224FD600B24FE600D24047056
:10118B000C7F2B227F2D227F2A227F2F227F002272
:0A120A007F6EBF6E05120F4380F8DF
:0112140022B7
:10102600EF24D0B40A00505D90103C75F003A4C5BF
:101036008325F0C5837302105A02105E0210630204
:10104600106802106D02107202107702107C0210F6
:1010560081021086E4FEFF227E007F01227E007F51
:1010660002227E007F03227E007F04227E007F050F
:10107600227E007F06227E007F07227E007F0822D6
:0A1086007E007F09227EFF7FFF221B
:101135008B4C8A4D894EAB4CAA4DA94E120C526070
:1011450013054EE54E7002054D14F9120C52FF12AF
:05115500116980E22297
:0411B2007F107E2705
:1011B600E4FDFCC3ED9FEC9E50070DBD00010C80C5
:0111C600F236
:0111C7002205
:0F115A0014242AF8A622742A253BF8E4F6AF22C3
:10116900D2B78FA0D2B67F647E001211B6C2B60282
:0211790011B6AD
:0411C8007F017E0025
:1011CC00C2B78FA0D2B67F647E001211B6C2B6022F
:0211DC0011B64A
:10110F007FDC7E051211B67F387E001211CC7F0C6A
:10111F007E001211CC7F067E001211CC1211C87FF7
:06112F00DC7E050211B692
:100D7D00E4F523F524F525F526F527F528F529784D
:100D8D002A7C00FD7BFF7A1179A2FE7F10120C2CBC
:100D9D00E4F53AF53B1211FF12110F12120A8F22D0
:100DAD00E522B443211211C87FE87E031211B6E487
:100DBD00F527F528F525F526F523F524F529F53A3A
:100DCD00F53BF52A80D5E522643D6003020EB4E5BE
:100DDD002960C824D6602924FD601624FE602E24C7
:100DED00047046E5242526F528E5233525F52780CD
:100DFD0038C3E5249526F528E5239525F527802983
:100E0D00AC25AD26AE23AF24120C6B8011E5264523
:100E1D00256011AC25AD26AE23AF24120C7D8E2797
:100E2D008F288005E4F527F528754FFF755011754E
:100E3D00519B8527528528537B007A00793C1208F7
:100E4D005C754F0075500075513C7B007A00792A16
:100E5D001210901211C87FE87E031211B67B007A32
:100E6D0000792A1211357FE87E031211B6852723EA
:100E7D00852824E4F525F526F529F53AF53BF52ADF
:100E8D00754FFF75501175519F852352852453FB66
:100E9D007A00792A12085C7B007A00792A1211DE19
:100EAD008E3A8F3B020DA8E522C394304051E522C6
:100EBD00D39439504AE529AF22701C121026AA0688
:100ECD00AB07AE23AF247C007D0A120C6BEB2FF524
:100EDD0024EA3EF523801A121026AA06AB07AE258A
:100EED00AF267C007D0A120C6BEB2FF526EA3EF542
:100EFD0025053BE53B7002053A12115A020DA8E596
:100F0D0022642B6015E522642D600FE522642A60B2
:100F1D0009E522642F6003020DA8E5296003020D87
:100F2D00A8AF2212117B8F29053BE53B7002053AD4
:060F3D0012115A020DA87A
:100B5C00E709F608DFFA8046E709F208DFFA803E7B
:100B6C0088828C83E709F0A3DFFA8032E309F60868
:100B7C00DFFA8078E309F208DFFA807088828C83D0
:100B8C00E309F0A3DFFA806489828A83E0A3F60884
:100B9C00DFFA805889828A83E0A3F208DFFA804C5E
:100BAC0080D280FA80C680D4806980F28033801035
:100BBC0080A680EA809A80A880DA80E280CA80339E
:100BCC0089828A83ECFAE493A3C8C582C8CCC58316
:100BDC00CCF0A3C8C582C8CCC583CCDFE9DEE780E6
:100BEC000D89828A83E493A3F608DFF9ECFAA9F065
:100BFC00EDFB2289828A83ECFAE0A3C8C582C8CCBB
:100C0C00C583CCF0A3C8C582C8CCC583CCDFEADED3
:100C1C00E880DB89828A83E493A3F208DFF980CC35
:100C2C0088F0EF60010E4E60C388F0ED2402B4042E
:100C3C000050B9F582EB2402B4040050AF232345D5
:060C4C008223900BAC7343
:100C5200BB010689828A83E0225002E722BBFE02A0
:090C6200E32289828A83E49322D3
:100C6B00EF8DF0A4A8F0CF8CF0A428CE8DF0A42E9D
:020C7B00FE2257
:100C7D00C2D5EC30E709B2D5E4C39DFDE49CFCEE92
:100C8D0030E715B2D5E4C39FFFE49EFE120CF2C30C
:100C9D00E49DFDE49CFC8003120CF230D507C3E407
:060CAD009FFFE49EFE2201
:10080000E55B244FF8E6055B22784C300702784F11
:10081000E475F001120D47020C522000EB7F2ED23E
:10082000008018EF540F2490D43440D4FF30040BD0
:10083000EF24BFB41A0050032461FFE55C60021589
:100840005C055FE55F7002055E30070D784CE4756E
:10085000F001120D47EF020CE00210E87403D2071A
:100860008003E4C207F55B8B4C8A4D894EE4F55C4E
:10087000F55EF55FE55C60077F2012083B80F5754B
:100880005DFFC201C200C202C203C205C206C208A5
:10089000120809FF700D3007057F0012084CAF5F8A
:1008A000AE5E22B4255FC2D5C204120809FF24D06F
:1008B000B40A00501A75F00A785C30D50508B6FF06
:1008C0000106C6A426F620D5047002D20380D924DE
:1008D000CFB41A00EF5004C2E5D204020A4CD20190
:1008E00080C6D20080C0D20280BCD2D580BAD205E8
:1008F00080B47F2012083B2002077401B55C0040E1
:10090000F1120800FF12083B020874D208D20680D8
:1009100095120800FB120800FA120800F94A4B7001
:1009200006791D7A0B7BFF20022EE55C602A7E0093
:100930008E82758300120CB360060EEE655D70F05A
:10094000C2D5EBC0E0EAC0E0E9C0E0EE120A93D005
:10095000E0F9D0E0FAD0E0FB120C52FF60AAEBC045
:10096000E0EAC0E0E9C0E012083BD0E02401F9D0A1
:10097000E03400FAD0E0FBE55D0460DCD55DD980B1
:10098000877BFF7A0A798FD202809C791080027966
:1009900008C206C2088008D2D5790A8004790AC242
:1009A000D5E55D047002F55DE4FAFDFEFF12080076
:1009B000FC7B08200113120800FD7B1030000A1296
:1009C0000800FE120800FF7B20EC3382D592D55040
:1009D00013C3E43000069FFFE49EFEE42001039D64
:1009E000FDE49CFCE4CBF8C201EC700CCFCECDCC86
:1009F000E824F8F870F38017C3EF33FFEE33FEED11
:100A000033FDEC33FCEB33FB994002FB0FD8E9EBF1
:100A1000300105F8D0E0C448B201C0E00AEC4D4E08
:100A20004F78207B0070C2EAB55D0040BCC0E01288
:100A30000A95D0F0D0E0200104C4C0E0C4B201C0E7
:100A4000F0120824D0F0D5F0EB020874120D57090B
:100A50001153098B5808E24C08DE42098F4F099761
:0F0A60004409974908F743099D550981460981C3
:100A6F00450981470B3D5008E62D08EA2E090D2B4D
:100A7F0008EE23090B200B262A08A64800000905BB
:100A8F003F3F3F00790AA2D5200314300509B91062
:100A9F00020404B9080104A2D52006025001042063
:100AAF0002689202B55C005034C0E07F2030031919
:100ABF007F30A20272067205500F120AECC202C2F8
:100ACF0006C205C2087F30800F300503E9C0E0126F
:100ADF00083B300503D0E0F9D0E0B55CCC3005170A
:100AEF007F30B9100C12083B7F583004077F788095
:100AFF0003B9080312083B3002057F2D02083B7F24
:100B0F00202008F87F2B2006F322920280CF286E38
:100B1F00756C6C2900D2011208003001F8C20178FF
:100B2F005C30D50108F60208A62D5043495812082B
:100B3F00002403B405004001E4900B389312082CF5
:0D0B4F00743A12082CD203755C0402098B65
:101090008B4C8A4D894E8B528A538954AB4C054EEA
:1010A000E54EAA4D7002054D14F9120C5270ED7404
:1010B000FF254EF54E74FF354DF54DAB4F0551E50F
:1010C00051AA507002055014F9120C52FFAB4C0596
:1010D0004EE54EAA4D7002054D14F9EF120CE0706A
:0810E000DAAB52AA53A9542215
:1011DE00E4FFFE120C52600C0FEF70010E09E97065
:0511EE00F20A80EF226F
:100CB300BB010CE58229F582E5833AF583E02250F6
:100CC30006E92582F8E622BBFE06E92582F8E22240
:0D0CD300E58229F582E5833AF583E493225A
:100CE000BB010689828A83F0225002F722BBFE01F3
:020CF000F322ED
:100CF200BC000BBE0029EF8DF084FFADF022E4CCE6
:100D0200F875F008EF2FFFEE33FEEC33FCEE9DECAE
:100D1200984005FCEE9DFE0FD5F0E9E4CEFD22EDF4
:100D2200F8F5F0EE8420D21CFEADF075F008EF2F3E
:100D3200FFED33FD4007985006D5F0F222C398FD2F
:050D42000FD5F0EA22CC
:100D4700FAE6FB0808E6F925F0F618E6CA3AF622AD
:100D5700D083D082F8E4937012740193700DA3A32B
:100D670093F8740193F5828883E47374029368603F
:060D7700EFA3A3A380DF3F
:1010E800EFB40A07740D1210F3740A309811A89916
:1010F800B8130CC2983098FDA899C298B811F63068
:0711080099FDC299F599223F
:00000001FF
